:020000040000FA
:04000000C3EF03F057
:0F06000000434F4D5041524520314B485A0000A6
:10061000000E956E000E8C6E96908D9096928D9237
:10062000270E026EF50EE82EFED7022EFCD700F044
:10063000000E036E300ECAEC03F00D0E026EFC0EBF
:10064000E82EFED7022EFCD7032A020E03642BEFFE
:1006500003F02DEF03F01AEF03F0380ECAEC03F0AD
:100660001A0EE82EFED700D0010ECAEC03F0060EDB
:10067000026E300EE82EFED7022EFCD700D00C0EF4
:10068000CAEC03F01A0EE82EFED700D0060ECAEC14
:1006900003F01A0EE82EFED700D01200086E0804F0
:1006A000D8A455EF03F057EF03F05AEF03F00450CE
:1006B0007F0F076E020E0818D8A461EF03F063EFF6
:1006C00003F066EF03F00450BF0F076E07C002F09F
:1006D000000EB4EC03F079EF03F005C0F6FF06C09E
:1006E000F7FF0800F5CF02F0010EB4EC03F0054A65
:1006F000062A05C0F6FF06C0F7FF0800F5500009FE
:10070000D8A485EF03F087EF03F06DEF03F012003C
:100710000F0EC16E08EC03F0010E046E010E056EA3
:10072000060E066E010E4EEC03F0D00ECD6E000EDE
:10073000CF6E000ECE6ECD80020EBD6E010EBF6E6E
:10074000F40EBE6E9E9494949EA4A9EF03F0ABEFBA
:1007500003F0A4EF03F0000ECF6E000ECE6E9E9459
:10076000A4EF03F000EF00F0036E03B002D08D9011
:1007700001D08D801A0EE82EFED700D08D92025047
:10078000CAEC03F01200000EF86E060EF76E0001C0
:1007900088EF03F0016E01C08CFF8D828D921200F4
:020000040020DA
:08000000FFFFFFFFFFFFFFFF00
:020000040030CA
:0E000000FF02181EFF8181FF0FC00FE00F40AE
:00000001FF
